{
  "transactions": [
    {
      "hash": "0x478945bcc4d3eb8e0346b430734d2c774ca815b5367265391fade3767af51dbd",
      "transactionType": "CALL",
      "contractName": null,
      "contractAddress": "0x0dcd1bf9a1b36ce34237eeafef220932846bcd82",
      "function": "registerLatestBlock((bytes4,bytes32,bytes32,bytes4,bytes4,bytes4)[],uint256)",
      "arguments": [
        "[(0x00000020, 0x8f0ee3933daa105f273ca521cba0bbdbdc4bb163e7c18c8d70726635219cc81d, 0x206c35258e3f10bd5f62816d0e5890bcdad4cd4b7a6a8e2b09b0862b46a3471e, 0xc7d7e467, 0xffff7f20, 0x01000000), (0x00000020, 0xc5c3a8996152c75c691b9e54f0afd48720770ab64fbf889a09da33948265610e, 0xec4779cc6e56f97625bdfd695eb9c73c9a1a26f0ae366e9251dc52b737ff5831, 0xc7d7e467, 0xffff7f20, 0x00000000), (0x00000020, 0x038bb8cae534972d50a9c855915b3e99eb2621cbba917e002769c548e76b8e76, 0xc3791ab7c12e3b13ffbe2686fa4796da300271c99c1d9be98a5908e288a63b42, 0x9ae0e467, 0xffff7f20, 0x00000000), (0x00000020, 0x2fb61714b681ce6803de4ce3735a0025bfe5ffd61e2d0c41d8304b5eb508c36f, 0xaab33561cde8dbac9ad77840467a725bb44f408622abc6128cc310b176cd6aa1, 0x9ae0e467, 0xffff7f20, 0x00000000), (0x00000020, 0x1cc4cf879ac367d48dfdd626d42d013ecbd47c00a4e49b2597e659594cc4be2f, 0x19f9ed5e347e1bc31cfa071404cecb3679c15f7959d7781b6e2bff0b4b0bb4ca, 0x9ae0e467, 0xffff7f20, 0x01000000), (0x00000020, 0x832474f810acd21fefe154ee9fb706a29f84fa6e163d95c257633d1d1d023227, 0x1316e4d254a7c2968fd7881fbed2be663bd574ea7e829661a4eb7dfd89b9a37c, 0x9ae0e467, 0xffff7f20, 0x00000000), (0x00000020, 0x45839a8584f525c9c9cd85a36b59a7123dea376e7c34b584a801eccd23a46c76, 0xc5de0d5ace5a89600c6f5d0ba41a5ddfa5959a0ccc36c34f69d9f900e3a03b14, 0x9ae0e467, 0xffff7f20, 0x03000000)]",
        "4"
      ],
      "transaction": {
        "from": "0xf39fd6e51aad88f6f4ce6ab8827279cfffb92266",
        "to": "0x0dcd1bf9a1b36ce34237eeafef220932846bcd82",
        "gas": "0x52e23",
        "value": "0x0",
        "input": "0xb5fdade200000000000000000000000000000000000000000000000000000000000000400000000000000000000000000000000000000000000000000000000000000004000000000000000000000000000000000000000000000000000000000000000700000020000000000000000000000000000000000000000000000000000000008f0ee3933daa105f273ca521cba0bbdbdc4bb163e7c18c8d70726635219cc81d206c35258e3f10bd5f62816d0e5890bcdad4cd4b7a6a8e2b09b0862b46a3471ec7d7e46700000000000000000000000000000000000000000000000000000000ffff7f200000000000000000000000000000000000000000000000000000000001000000000000000000000000000000000000000000000000000000000000000000002000000000000000000000000000000000000000000000000000000000c5c3a8996152c75c691b9e54f0afd48720770ab64fbf889a09da33948265610eec4779cc6e56f97625bdfd695eb9c73c9a1a26f0ae366e9251dc52b737ff5831c7d7e46700000000000000000000000000000000000000000000000000000000ffff7f200000000000000000000000000000000000000000000000000000000000000000000000000000000000000000000000000000000000000000000000000000002000000000000000000000000000000000000000000000000000000000038bb8cae534972d50a9c855915b3e99eb2621cbba917e002769c548e76b8e76c3791ab7c12e3b13ffbe2686fa4796da300271c99c1d9be98a5908e288a63b429ae0e46700000000000000000000000000000000000000000000000000000000ffff7f2000000000000000000000000000000000000000000000000000000000000000000000000000000000000000000000000000000000000000000000000000000020000000000000000000000000000000000000000000000000000000002fb61714b681ce6803de4ce3735a0025bfe5ffd61e2d0c41d8304b5eb508c36faab33561cde8dbac9ad77840467a725bb44f408622abc6128cc310b176cd6aa19ae0e46700000000000000000000000000000000000000000000000000000000ffff7f2000000000000000000000000000000000000000000000000000000000000000000000000000000000000000000000000000000000000000000000000000000020000000000000000000000000000000000000000000000000000000001cc4cf879ac367d48dfdd626d42d013ecbd47c00a4e49b2597e659594cc4be2f19f9ed5e347e1bc31cfa071404cecb3679c15f7959d7781b6e2bff0b4b0bb4ca9ae0e46700000000000000000000000000000000000000000000000000000000ffff7f200000000000000000000000000000000000000000000000000000000001000000000000000000000000000000000000000000000000000000000000000000002000000000000000000000000000000000000000000000000000000000832474f810acd21fefe154ee9fb706a29f84fa6e163d95c257633d1d1d0232271316e4d254a7c2968fd7881fbed2be663bd574ea7e829661a4eb7dfd89b9a37c9ae0e46700000000000000000000000000000000000000000000000000000000ffff7f20000000000000000000000000000000000000000000000000000000000000000000000000000000000000000000000000000000000000000000000000000000200000000000000000000000000000000000000000000000000000000045839a8584f525c9c9cd85a36b59a7123dea376e7c34b584a801eccd23a46c76c5de0d5ace5a89600c6f5d0ba41a5ddfa5959a0ccc36c34f69d9f900e3a03b149ae0e46700000000000000000000000000000000000000000000000000000000ffff7f20000000000000000000000000000000000000000000000000000000000300000000000000000000000000000000000000000000000000000000000000",
        "nonce": "0xf",
        "chainId": "0x7a6a"
      },
      "additionalContracts": [],
      "isFixedGasLimit": false
    }
  ],
  "receipts": [
    {
      "status": "0x1",
      "cumulativeGasUsed": "0x38ac3",
      "logs": [
        {
          "address": "0x0dcd1bf9a1b36ce34237eeafef220932846bcd82",
          "topics": [
            "0x5bb203c18199bfb0e9a8b6e9446b30b7f2fef2e244d52785f2dd6795abb6e01a",
            "0x832474f810acd21fefe154ee9fb706a29f84fa6e163d95c257633d1d1d023227",
            "0x0000000000000000000000000000000000000000000000000000000000000005"
          ],
          "data": "0x",
          "blockHash": "0x0db88a5da1ac1a83b6953a209eb956e921574819252bbd3e524418262c7e85e7",
          "blockNumber": "0x2f1",
          "blockTimestamp": "0x67e4f63a",
          "transactionHash": "0x478945bcc4d3eb8e0346b430734d2c774ca815b5367265391fade3767af51dbd",
          "transactionIndex": "0x0",
          "logIndex": "0x0",
          "removed": false
        }
      ],
      "logsBloom": "0x00000000000000000000000000000000000000000000000000000000000000000000000000000000000000000000000000000000800000000000000000000000000010000000000000000000000000000000000000000000000000000000400000000000000000000040100000000000000000000000000000000000000000000200000000000000000000000000001200000a00000000000000000000000000000000000000000000000000000000000000000000000000000000000000000000000000000000000000000000000000000000000000000000000002000000000000000000000000000000000000000000000000020000000000000000000000",
      "type": "0x2",
      "transactionHash": "0x478945bcc4d3eb8e0346b430734d2c774ca815b5367265391fade3767af51dbd",
      "transactionIndex": "0x0",
      "blockHash": "0x0db88a5da1ac1a83b6953a209eb956e921574819252bbd3e524418262c7e85e7",
      "blockNumber": "0x2f1",
      "gasUsed": "0x38ac3",
      "effectiveGasPrice": "0x8",
      "blobGasPrice": "0x1",
      "from": "0xf39fd6e51aad88f6f4ce6ab8827279cfffb92266",
      "to": "0x0dcd1bf9a1b36ce34237eeafef220932846bcd82",
      "contractAddress": null,
      "root": "0x463f0b813888614b5cf7a5214d863300b9a78dd2f3b116f21af51efffa7a59df"
    }
  ],
  "libraries": [],
  "pending": [],
  "returns": {},
  "timestamp": 1743058490,
  "chain": 31338,
  "commit": "a07a6f5"
}