{
  "transactions": [
    {
      "hash": "0x85e83e63bdf58dfdbb193a7d08c7159efa6dd0d86d104a0180570bf2ee2a763e",
      "transactionType": "CALL",
      "contractName": null,
      "contractAddress": "0x959922be3caee4b8cd9a407cc3ac1c251c2007b1",
      "function": "registerLatestBlock((bytes4,bytes32,bytes32,bytes4,bytes4,bytes4)[],uint256)",
      "arguments": [
        "[(0x00000030, 0x3f6377480f7a6b39bfc2c2f5c7a6ad2f63209a1e724abc4919fa868f44f4f33e, 0x89623b1b89add4c14497116c63b8289864c45a33fd100c0bf788bade46b7398d, 0x760ce567, 0xffff7f20, 0x00000000), (0x00000030, 0x39eab1652f833cefeef1f3e4cd079904773e524216ac31c9409b7347fab3cb42, 0x0cfdc01468cdc47f9179279d1b91dd69ca60862914635e2a5946e7b44b016445, 0x980ee567, 0xffff7f20, 0x02000000), (0x00000030, 0x49c7cac87d50decadf329a9df4eb9903bba4fee2dc42e2ee135bc5197c855b02, 0x41a461dfcc02efcd39625f081fd24e951d3d181f3f5a1777a74d9cfd8d12570e, 0x8c15e567, 0xffff7f20, 0x02000000), (0x00000030, 0x4d4ec6a0c29c99290da35496dbb8231400f788e2e1c5dea6f29e3f6e29663117, 0x396ab05314f1e788e479543fadfc112baf1d713c8e9fe7a1b22a69bdaefbae08, 0x8717e567, 0xffff7f20, 0x00000000), (0x00000030, 0x4f31fc32bc917feb6e570b5a2420bdcbb9868cc7dc7891af589ec5cf6258b973, 0xc8f08c1d893b240322eac55e5bdc369538d60da4282c5ed662a67b73464e8e2e, 0x8717e567, 0xffff7f20, 0x00000000)]",
        "1"
      ],
      "transaction": {
        "from": "0xf39fd6e51aad88f6f4ce6ab8827279cfffb92266",
        "to": "0x959922be3caee4b8cd9a407cc3ac1c251c2007b1",
        "gas": "0x51b7d",
        "value": "0x0",
        "input": "0xb5fdade200000000000000000000000000000000000000000000000000000000000000400000000000000000000000000000000000000000000000000000000000000001000000000000000000000000000000000000000000000000000000000000000500000030000000000000000000000000000000000000000000000000000000003f6377480f7a6b39bfc2c2f5c7a6ad2f63209a1e724abc4919fa868f44f4f33e89623b1b89add4c14497116c63b8289864c45a33fd100c0bf788bade46b7398d760ce56700000000000000000000000000000000000000000000000000000000ffff7f20000000000000000000000000000000000000000000000000000000000000000000000000000000000000000000000000000000000000000000000000000000300000000000000000000000000000000000000000000000000000000039eab1652f833cefeef1f3e4cd079904773e524216ac31c9409b7347fab3cb420cfdc01468cdc47f9179279d1b91dd69ca60862914635e2a5946e7b44b016445980ee56700000000000000000000000000000000000000000000000000000000ffff7f20000000000000000000000000000000000000000000000000000000000200000000000000000000000000000000000000000000000000000000000000000000300000000000000000000000000000000000000000000000000000000049c7cac87d50decadf329a9df4eb9903bba4fee2dc42e2ee135bc5197c855b0241a461dfcc02efcd39625f081fd24e951d3d181f3f5a1777a74d9cfd8d12570e8c15e56700000000000000000000000000000000000000000000000000000000ffff7f2000000000000000000000000000000000000000000000000000000000020000000000000000000000000000000000000000000000000000000000000000000030000000000000000000000000000000000000000000000000000000004d4ec6a0c29c99290da35496dbb8231400f788e2e1c5dea6f29e3f6e29663117396ab05314f1e788e479543fadfc112baf1d713c8e9fe7a1b22a69bdaefbae088717e56700000000000000000000000000000000000000000000000000000000ffff7f2000000000000000000000000000000000000000000000000000000000000000000000000000000000000000000000000000000000000000000000000000000030000000000000000000000000000000000000000000000000000000004f31fc32bc917feb6e570b5a2420bdcbb9868cc7dc7891af589ec5cf6258b973c8f08c1d893b240322eac55e5bdc369538d60da4282c5ed662a67b73464e8e2e8717e56700000000000000000000000000000000000000000000000000000000ffff7f20000000000000000000000000000000000000000000000000000000000000000000000000000000000000000000000000000000000000000000000000",
        "nonce": "0x11",
        "chainId": "0x7a6a"
      },
      "additionalContracts": [],
      "isFixedGasLimit": false
    }
  ],
  "receipts": [
    {
      "status": "0x1",
      "cumulativeGasUsed": "0x37e03",
      "logs": [
        {
          "address": "0x959922be3caee4b8cd9a407cc3ac1c251c2007b1",
          "topics": [
            "0x5bb203c18199bfb0e9a8b6e9446b30b7f2fef2e244d52785f2dd6795abb6e01a",
            "0x49c7cac87d50decadf329a9df4eb9903bba4fee2dc42e2ee135bc5197c855b02",
            "0x0000000000000000000000000000000000000000000000000000000000000001"
          ],
          "data": "0x",
          "blockHash": "0x648e7e297d7c68edc01f638be1627b545c1bc582561ced1c2425d49df5827b43",
          "blockNumber": "0x7a1",
          "blockTimestamp": "0x67e536f1",
          "transactionHash": "0x85e83e63bdf58dfdbb193a7d08c7159efa6dd0d86d104a0180570bf2ee2a763e",
          "transactionIndex": "0x0",
          "logIndex": "0x0",
          "removed": false
        }
      ],
      "logsBloom": "0x00000000000000000000000000000000000000000000000000000000000000000000000000000000000000000000000000000000800000000000000000040000000000000000000000020000000000000000000200040000000000000080000000000000000000000020000000000000000000000000000000000000000000000000000000000000000000000000000200000000000000000000000000000000000000000000000000200000000000000000000000000000000000000000000000000000000000000000000000000000000000000000000000000002000040000000000000000000010000000000000000000000000000000000000000000000",
      "type": "0x2",
      "transactionHash": "0x85e83e63bdf58dfdbb193a7d08c7159efa6dd0d86d104a0180570bf2ee2a763e",
      "transactionIndex": "0x0",
      "blockHash": "0x648e7e297d7c68edc01f638be1627b545c1bc582561ced1c2425d49df5827b43",
      "blockNumber": "0x7a1",
      "gasUsed": "0x37e03",
      "effectiveGasPrice": "0x8",
      "blobGasPrice": "0x1",
      "from": "0xf39fd6e51aad88f6f4ce6ab8827279cfffb92266",
      "to": "0x959922be3caee4b8cd9a407cc3ac1c251c2007b1",
      "contractAddress": null,
      "root": "0xe52d0776c0acd47c92fd6096720a7a75dfe4afece8d93469569db57e6ca53d49"
    }
  ],
  "libraries": [],
  "pending": [],
  "returns": {},
  "timestamp": 1743075057,
  "chain": 31338,
  "commit": "6dd4fa2"
}