{
  "transactions": [
    {
      "hash": "0x18ef0bf3e2359f21f58c9140f71b9b50d368e4298466001d613f9c7b502f9844",
      "transactionType": "CALL",
      "contractName": null,
      "contractAddress": "0x0dcd1bf9a1b36ce34237eeafef220932846bcd82",
      "function": "registerInclusiveBlock((bytes4,bytes32,bytes32,bytes4,bytes4,bytes4)[],uint256)",
      "arguments": [
        "[(0x00000030, 0x39eab1652f833cefeef1f3e4cd079904773e524216ac31c9409b7347fab3cb42, 0x0cfdc01468cdc47f9179279d1b91dd69ca60862914635e2a5946e7b44b016445, 0x980ee567, 0xffff7f20, 0x02000000), (0x00000030, 0x49c7cac87d50decadf329a9df4eb9903bba4fee2dc42e2ee135bc5197c855b02, 0x41a461dfcc02efcd39625f081fd24e951d3d181f3f5a1777a74d9cfd8d12570e, 0x8c15e567, 0xffff7f20, 0x02000000), (0x00000030, 0x4d4ec6a0c29c99290da35496dbb8231400f788e2e1c5dea6f29e3f6e29663117, 0x396ab05314f1e788e479543fadfc112baf1d713c8e9fe7a1b22a69bdaefbae08, 0x8717e567, 0xffff7f20, 0x00000000), (0x00000030, 0x4f31fc32bc917feb6e570b5a2420bdcbb9868cc7dc7891af589ec5cf6258b973, 0xc8f08c1d893b240322eac55e5bdc369538d60da4282c5ed662a67b73464e8e2e, 0x8717e567, 0xffff7f20, 0x00000000), (0x00000030, 0x2b9b3e2f78cce234ef32b9fe170d410f856931e75b3914ba46b1de26a6f40947, 0x59ceccc332c48567463c4e2f501d2a1e7c82fd22ac04e1780f608829ff88db16, 0x8717e567, 0xffff7f20, 0x00000000), (0x00000030, 0x3c90136a6dbb0d5b3094e0f87bf2720101315a01c91bc53e4731b08b91659f32, 0x2f5e2e7260051697de898720da51ca56ed751f362affee6d110babee12ddfa75, 0x8717e567, 0xffff7f20, 0x01000000)]",
        "1"
      ],
      "transaction": {
        "from": "0xf39fd6e51aad88f6f4ce6ab8827279cfffb92266",
        "to": "0x0dcd1bf9a1b36ce34237eeafef220932846bcd82",
        "gas": "0x56f17",
        "value": "0x0",
        "input": "0x8d4f3143000000000000000000000000000000000000000000000000000000000000004000000000000000000000000000000000000000000000000000000000000000010000000000000000000000000000000000000000000000000000000000000006000000300000000000000000000000000000000000000000000000000000000039eab1652f833cefeef1f3e4cd079904773e524216ac31c9409b7347fab3cb420cfdc01468cdc47f9179279d1b91dd69ca60862914635e2a5946e7b44b016445980ee56700000000000000000000000000000000000000000000000000000000ffff7f20000000000000000000000000000000000000000000000000000000000200000000000000000000000000000000000000000000000000000000000000000000300000000000000000000000000000000000000000000000000000000049c7cac87d50decadf329a9df4eb9903bba4fee2dc42e2ee135bc5197c855b0241a461dfcc02efcd39625f081fd24e951d3d181f3f5a1777a74d9cfd8d12570e8c15e56700000000000000000000000000000000000000000000000000000000ffff7f2000000000000000000000000000000000000000000000000000000000020000000000000000000000000000000000000000000000000000000000000000000030000000000000000000000000000000000000000000000000000000004d4ec6a0c29c99290da35496dbb8231400f788e2e1c5dea6f29e3f6e29663117396ab05314f1e788e479543fadfc112baf1d713c8e9fe7a1b22a69bdaefbae088717e56700000000000000000000000000000000000000000000000000000000ffff7f2000000000000000000000000000000000000000000000000000000000000000000000000000000000000000000000000000000000000000000000000000000030000000000000000000000000000000000000000000000000000000004f31fc32bc917feb6e570b5a2420bdcbb9868cc7dc7891af589ec5cf6258b973c8f08c1d893b240322eac55e5bdc369538d60da4282c5ed662a67b73464e8e2e8717e56700000000000000000000000000000000000000000000000000000000ffff7f2000000000000000000000000000000000000000000000000000000000000000000000000000000000000000000000000000000000000000000000000000000030000000000000000000000000000000000000000000000000000000002b9b3e2f78cce234ef32b9fe170d410f856931e75b3914ba46b1de26a6f4094759ceccc332c48567463c4e2f501d2a1e7c82fd22ac04e1780f608829ff88db168717e56700000000000000000000000000000000000000000000000000000000ffff7f2000000000000000000000000000000000000000000000000000000000000000000000000000000000000000000000000000000000000000000000000000000030000000000000000000000000000000000000000000000000000000003c90136a6dbb0d5b3094e0f87bf2720101315a01c91bc53e4731b08b91659f322f5e2e7260051697de898720da51ca56ed751f362affee6d110babee12ddfa758717e56700000000000000000000000000000000000000000000000000000000ffff7f20000000000000000000000000000000000000000000000000000000000100000000000000000000000000000000000000000000000000000000000000",
        "nonce": "0x10",
        "chainId": "0x7a6a"
      },
      "additionalContracts": [],
      "isFixedGasLimit": false
    }
  ],
  "receipts": [
    {
      "status": "0x1",
      "cumulativeGasUsed": "0x3ef20",
      "logs": [
        {
          "address": "0x0dcd1bf9a1b36ce34237eeafef220932846bcd82",
          "topics": [
            "0x5bb203c18199bfb0e9a8b6e9446b30b7f2fef2e244d52785f2dd6795abb6e01a",
            "0x4d4ec6a0c29c99290da35496dbb8231400f788e2e1c5dea6f29e3f6e29663117",
            "0x0000000000000000000000000000000000000000000000000000000000000002"
          ],
          "data": "0x",
          "blockHash": "0x96b78c997311854d829525d567140eb5d1622d526d8517f9976c87c02791a7b7",
          "blockNumber": "0x16",
          "blockTimestamp": "0x67e6fe98",
          "transactionHash": "0x18ef0bf3e2359f21f58c9140f71b9b50d368e4298466001d613f9c7b502f9844",
          "transactionIndex": "0x0",
          "logIndex": "0x0",
          "removed": false
        }
      ],
      "logsBloom": "0x04000000000000000000000000000000000000000000000000000000000000000000000002000000000000000000000000000000800000000000000000000000000000000000000000000000000000000000000000000000000000000000400000000000000000000000000000000000000000000000000000000000000000000000000000000000000000000000000200000200000000000000000000000000000000000000000000000100000000000000000000000000000000100000000008000000000000000000000000000000000000000000000000000002000000000000000000000000000000000000000000000000028000000000000000000000",
      "type": "0x2",
      "transactionHash": "0x18ef0bf3e2359f21f58c9140f71b9b50d368e4298466001d613f9c7b502f9844",
      "transactionIndex": "0x0",
      "blockHash": "0x96b78c997311854d829525d567140eb5d1622d526d8517f9976c87c02791a7b7",
      "blockNumber": "0x16",
      "gasUsed": "0x3ef20",
      "effectiveGasPrice": "0x4867518b",
      "blobGasPrice": "0x1",
      "from": "0xf39fd6e51aad88f6f4ce6ab8827279cfffb92266",
      "to": "0x0dcd1bf9a1b36ce34237eeafef220932846bcd82",
      "contractAddress": null,
      "root": "0x886b2bfa11d4f0fe9e8406c64233a4a86c71205f24ac463115c27943726de913"
    }
  ],
  "libraries": [],
  "pending": [],
  "returns": {},
  "timestamp": 1743191705,
  "chain": 31338,
  "commit": "add0356"
}